:100000000C9434000C9451000C9451000C94510049
:100010000C9451000C9451000C9451000C94660007
:100020000C9451000C9451000C9451000C9451000C
:100030000C9451000C9451000C9451000C945100FC
:100040000C9451000C9451000C9451000C945100EC
:100050000C9451000C9451000C9451000C945100DC
:100060000C9451000C94510011241FBECFEFD8E026
:10007000DEBFCDBF11E0A0E0B1E0E4EAF8E002C0ED
:1000800005900D92A232B107D9F711E0A2E2B1E0DA
:1000900001C01D92AF32B107E1F70E9462030C94D8
:1000A00050040C940000E0EBF0E0808182608083DB
:1000B000E1EBF0E08081876080838DE48093B30082
:1000C000E0E7F0E080818260808308951F920F92C4
:1000D0000FB60F9211248F9381E0809322018F91AC
:1000E0000F900FBE0F901F901895569A84B583609D
:1000F00084BD84B5806C84BD85B5816085BD88EC88
:1001000087BD089584B58C7F84BD84B58F7384BD0D
:1001100085B58E7F85BD17BC0895282F30E0261742
:10012000370738F4909124019F3F19F09F5F909317
:1001300024016217730738F480912401882319F091
:100140008150809324018091240187BD089580FF10
:1001500002C0449A01C0449881FF02C0289A01C09D
:10016000289882FF02C0589A01C0589883FF02C0A5
:10017000409A08954098089586B190E024E09695BD
:1001800087952A95E1F78170189982604899846073
:100190003099886008951F933898509820983C981B
:1001A000419A439A0E94BC00182F1295107F4398E1
:1001B000439A0E94BC004398812B1F910895429856
:1001C0000E94CB0008951F93182F389A509A209AB6
:1001D0003C9A4198439A82958F700E94A700439859
:1001E000439A812F0E94A70043980E94DF0087FD59
:1001F000FCCF1F91089542980E94E3000895429A0F
:100200000E94E3000895982F8058883008F4977072
:10021000892F0E94FF000895CF93DF93EC0108C05F
:10022000892F8058883008F49770892F0E94FF002A
:1002300099919923A9F7DF91CF910895CF93DF93F7
:10024000EC010AC0892F8058883010F0892F02C035
:10025000892F87700E94FF00FE01219694919923B7
:1002600089F7DF91CF9108951F93CF93DF93EB012F
:1002700090E0877090700896880F880F880F0E9412
:10028000FB0010E089910E94FF001F5F1830D1F73A
:10029000DF91CF911F9108950F931F93CF93DF9319
:1002A0008B0190E0877090700896880F880F880FF8
:1002B0000E94FB00C0E0D0E0F801EC0FFD1FE491CC
:1002C0008E2F0E94FF002196C830D105A9F7DF913B
:1002D000CF911F910F910895813009F480E4605807
:1002E000860F0E94FB00089581E00E94FB000895A4
:1002F0000F931F93389A509A209A3C9A3A9A3B9AB5
:10030000399A42984398419880E395E70197F1F72D
:100310004298419880E30E94A70088E090E201970C
:10032000F1F780E30E94A70008EC10E0C8010197F4
:10033000F1F780E20E94A700C8010197F1F788E277
:100340000E94FB0088E00E94FB008CE00E94FB0002
:1003500086E00E94FB000E9474011F910F91089596
:100360000F931F93CF93DF938B0190E08770907072
:100370000896880F880F880F0E94FB00C0E0D0E02D
:10038000C8018C0F9D1F0E9438040E94FF00219617
:10039000C830D105A9F7DF91CF911F910F91089532
:1003A000CF93DF93EC0121960E943804982F81505F
:1003B0008E3F48F48F57883008F49770892F0E9439
:1003C000FF00CE01EFCFDF91CF910895DF93CF9360
:1003D000CDB7DEB761970FB6F894DEBF0FBECDBFC5
:1003E000BE016F5F7F4F4AE050E00E9417040E94F9
:1003F0000C0161960FB6F894DEBF0FBECDBFCF9152
:10040000DF91089556985E9A56985E9A5098589A39
:10041000ECE7F0E08081806C8083EAE7F0E08081A7
:1004200087608083808180688083089590917C00BC
:100430008F70907F892B80937C0080917A008064FC
:1004400080937A0080917A0086FDFCCF209178001D
:1004500030917900C90108950F931F9320911E01D7
:1004600030E04091250150912601249F8001259F75
:10047000100D349F100D11241093260100932501B7
:100480000E94160260911E0170E06F5F7F4F800F27
:10049000911F0E94CE03709326016093250180E096
:1004A00090E023E131E040E050E00E94AF0328E516
:1004B00032E040E050E00E94F503CA01B9011F910B
:1004C0000F9108950E9453000E9402020E9475003D
:1004D0000E94780180E091E00E940C0181E060E0E0
:1004E0000E946C0186E091E00E940C010895DC01FD
:1004F000FB01808148238C91882329F4442371F4E3
:1005000081E08C930895442349F08F5F8C93882376
:1005100029F42115310511F0F90109950895EF929B
:10052000FF920F931F93CF93DF9380911F019091C0
:10053000200164E670E00E94E2037B018C01CB01A4
:100540006AE271E04AE050E00E941704C80167E2E5
:1005500071E04AE050E00E9417040A3011053CF4B3
:1005600080E3809327019801205D209328010E9459
:1005700074018CE091E00E940C018AE291E00E94FB
:100580000C018EE20E94030187E291E00E940C01BF
:1005900086E191E00E940C01DF91CF911F910F91B4
:1005A000FF90EF90089580911F019091200121E02C
:1005B0008F30920728F40A969093200180931F01B0
:1005C0000E948F02089580911F0190912001803A2E
:1005D000910528F00A979093200180931F010E94B3
:1005E0008F020895EF92FF920F931F93CF93DF93A3
:1005F00010911F0185E00E942C029B01AC01812F0C
:10060000B9010E948D0080912301882309F053C015
:1006100089E18093230185E00E942C02DC01CB015B
:1006200064E670E00E94E2037B018C01CB016AE288
:1006300071E04AE050E00E941704C80167E271E0EF
:100640004AE050E00E9417040A3011053CF480E3B0
:10065000809327019801205D2093280181E065E0C7
:100660000E946C0185E00E9416020E94E6018AE168
:1006700091E00E940C0181E06AE00E946C018AE234
:1006800091E00E940C018EE20E94030187E291E05A
:100690000E940C0186E191E00E940C0180E065E07F
:1006A0000E946C018091240190E00E94E6018AE1A1
:1006B00091E00E940C01DF91CF911F910F91FF906B
:1006C000EF90089555985D9A26982E9A27982F9A1C
:1006D0000E946202789480912201882359F08091CF
:1006E0002301882329F080912301815080932301E5
:1006F000109222014D9903C00E94F202ECCF0E9499
:1007000082005E980E9474010E948F0221C08DE2D7
:1007100091E063E270E040E423EE32E00E94770271
:100720008EE291E063E270E040E823ED32E00E9467
:10073000770280912201882359F080912301882338
:1007400029F080912301815080932301109222018E
:100750004D99DDCF0E9475000E947401BCCF629F4D
:10076000D001739FF001829FE00DF11D649FE00DA9
:10077000F11D929FF00D839FF00D749FF00D659F0A
:10078000F00D9927729FB00DE11DF91F639FB00D09
:10079000E11DF91FBD01CF0111240895AA1BBB1B48
:1007A00051E107C0AA1FBB1FA617B70710F0A61B71
:1007B000B70B881F991F5A95A9F780959095BC0192
:1007C000CD01089597FB092E07260AD077FD04D0A6
:1007D000E5DF06D000201AF4709561957F4F0895EB
:1007E000F6F7909581959F4F0895A1E21A2EAA1BC6
:1007F000BB1BFD010DC0AA1FBB1FEE1FFF1FA217D1
:10080000B307E407F50720F0A21BB30BE40BF50BCD
:10081000661F771F881F991F1A9469F76095709556
:10082000809590959B01AC01BD01CF010895FB011E
:100830009F01E8944230C4F04532B4F44A3029F4C0
:1008400097FB1EF4909581959F4F642F77270E9408
:10085000CE03805D8A330CF0895D8193CB010097D4
:10086000A1F716F45DE251931082C9010C94400483
:10087000F999FECF92BD81BDF89A992780B5089568
:10088000DC01FC01672F71917723E1F7329704C0F7
:100890007C916D9370836291AE17BF07C8F3089582
:0408A000F894FFCFFA
:1008A40070776D3A20006164633A2000566F6C746F
:1008B4006167653A2000562020002020200004D2E1
:0208C400000032
:00000001FF
